{
  "transactions": [
    {
      "hash": "0x99af640d2c1a52bd1f18156a0ca22a47692ecb94e4cdaef2e8d550c48c878041",
      "transactionType": "CALL",
      "contractName": null,
      "contractAddress": "0x779877a7b0d9e8603169ddbd7836e478b4624789",
      "function": "transferAndCall(address,uint256,bytes)",
      "arguments": [
        "0x9DdfaCa8183c41ad55329BdeeD9F6A8d53168B1B",
        "3000000000000000000",
        "0xeb8b7f3f4d1696d1e35c627fa1a78fd5dca06ebbb343e93357a8e399515e2ab8"
      ],
      "transaction": {
        "from": "0xc83bf0315121e03544fc71589efa2bac1334a6d1",
        "to": "0x779877a7b0d9e8603169ddbd7836e478b4624789",
        "gas": "0x1c1ff",
        "value": "0x0",
        "input": "0x4000aea00000000000000000000000009ddfaca8183c41ad55329bdeed9f6a8d53168b1b00000000000000000000000000000000000000000000000029a2241af62c000000000000000000000000000000000000000000000000000000000000000000600000000000000000000000000000000000000000000000000000000000000020eb8b7f3f4d1696d1e35c627fa1a78fd5dca06ebbb343e93357a8e399515e2ab8",
        "nonce": "0x2a4",
        "chainId": "0xaa36a7"
      },
      "additionalContracts": [],
      "isFixedGasLimit": false
    }
  ],
  "receipts": [
    {
      "status": "0x1",
      "cumulativeGasUsed": "0x8e07c4",
      "logs": [
        {
          "address": "0x779877a7b0d9e8603169ddbd7836e478b4624789",
          "topics": [
            "0xddf252ad1be2c89b69c2b068fc378daa952ba7f163c4a11628f55a4df523b3ef",
            "0x000000000000000000000000c83bf0315121e03544fc71589efa2bac1334a6d1",
            "0x0000000000000000000000009ddfaca8183c41ad55329bdeed9f6a8d53168b1b"
          ],
          "data": "0x00000000000000000000000000000000000000000000000029a2241af62c0000",
          "blockHash": "0x485ddda5386c1e7be868f4f3b7bd2aad3474a79a8c55aae8b898ccf4b7d4b9e4",
          "blockNumber": "0x63d949",
          "transactionHash": "0x99af640d2c1a52bd1f18156a0ca22a47692ecb94e4cdaef2e8d550c48c878041",
          "transactionIndex": "0x42",
          "logIndex": "0x80",
          "removed": false
        },
        {
          "address": "0x779877a7b0d9e8603169ddbd7836e478b4624789",
          "topics": [
            "0xe19260aff97b920c7df27010903aeb9c8d2be5d310a2c67824cf3f15396e4c16",
            "0x000000000000000000000000c83bf0315121e03544fc71589efa2bac1334a6d1",
            "0x0000000000000000000000009ddfaca8183c41ad55329bdeed9f6a8d53168b1b"
          ],
          "data": "0x00000000000000000000000000000000000000000000000029a2241af62c000000000000000000000000000000000000000000000000000000000000000000400000000000000000000000000000000000000000000000000000000000000020eb8b7f3f4d1696d1e35c627fa1a78fd5dca06ebbb343e93357a8e399515e2ab8",
          "blockHash": "0x485ddda5386c1e7be868f4f3b7bd2aad3474a79a8c55aae8b898ccf4b7d4b9e4",
          "blockNumber": "0x63d949",
          "transactionHash": "0x99af640d2c1a52bd1f18156a0ca22a47692ecb94e4cdaef2e8d550c48c878041",
          "transactionIndex": "0x42",
          "logIndex": "0x81",
          "removed": false
        },
        {
          "address": "0x9ddfaca8183c41ad55329bdeed9f6a8d53168b1b",
          "topics": [
            "0x1ced9348ff549fceab2ac57cd3a9de38edaaab274b725ee82c23e8fc8c4eec7a",
            "0xeb8b7f3f4d1696d1e35c627fa1a78fd5dca06ebbb343e93357a8e399515e2ab8"
          ],
          "data": "0x000000000000000000000000000000000000000000000000000000000000000000000000000000000000000000000000000000000000000029a2241af62c0000",
          "blockHash": "0x485ddda5386c1e7be868f4f3b7bd2aad3474a79a8c55aae8b898ccf4b7d4b9e4",
          "blockNumber": "0x63d949",
          "transactionHash": "0x99af640d2c1a52bd1f18156a0ca22a47692ecb94e4cdaef2e8d550c48c878041",
          "transactionIndex": "0x42",
          "logIndex": "0x82",
          "removed": false
        }
      ],
      "logsBloom": "0x00000004000000000000000000000000000000000020000000000000020000000000000000000000000000000000000000000000000200400000000000000800000000000000000000000008000000000000000000000000000020000020000208000000000000000000000000000000000000000000000000000010000040000000000000000000000000010000800000000020000000000000000000000000000000000000000000000000010000000000000040000000000004000000000000000002000000000000000000000000000000000000000100000000002000000010000000000000800000000000000000000000000000000000000000000000",
      "type": "0x2",
      "transactionHash": "0x99af640d2c1a52bd1f18156a0ca22a47692ecb94e4cdaef2e8d550c48c878041",
      "transactionIndex": "0x42",
      "blockHash": "0x485ddda5386c1e7be868f4f3b7bd2aad3474a79a8c55aae8b898ccf4b7d4b9e4",
      "blockNumber": "0x63d949",
      "gasUsed": "0x133b1",
      "effectiveGasPrice": "0x184241153",
      "from": "0xc83bf0315121e03544fc71589efa2bac1334a6d1",
      "to": "0x779877a7b0d9e8603169ddbd7836e478b4624789",
      "contractAddress": null
    }
  ],
  "libraries": [],
  "pending": [],
  "returns": {},
  "timestamp": 1724250808,
  "chain": 11155111,
  "commit": "892a2f5"
}